:03000000020006F5
:08005F00E4F508F509020003B5
:0300030002006791
:200067001200EBC200A2A392011200DB5002D2003000F2C2A7A2A092011200DB500B74199C
:200087002508F508E43509F509A2A192011200DB500B74322508F508E43509F509A2A2922B
:2000A700011200DB500B74642508F508E43509F509A2A492011200DB500A120111E4F508A9
:2000C700F509D2A7C3E508945EE509940140A1120110809C20010B9000011200EC2001027F
:2000E700D322C32222AE82AF837C007D00C3EC9EED9F50147AFB7B041ABAFF011BEA4B70DD
:0E010700F70CBC00E80D80E522227590552211
:06003500E478FFF6D8FD9F
:200013007900E94400601B7A00900119780075A000E493F2A308B8000205A0D9F4DAF2757A
:02003300A0FF2C
:20003B007800E84400600A790075A000E4F309D8FC7800E84400600C7900900000E4F0A3C5
:04005B00D8FCD9FAFA
:0D000600758120120115E5826003020003E0
:0401150075820022CD
:00000001FF
