:03000000020006F5
:03005F0002000399
:0300030002031ED7
:20006200758E0090000022AF83E582900400F0EFA3F0900400E0FEA3E0FF7C007D00C3EC8E
:200082009EED64808FF063F08095F050147A337B001ABAFF011BEA4B70F70CBC00E00D80CC
:2000A200DD22E582900402F09004037480F0C2A0D2A2900402E0FF900403E0FE6030ADA139
:2000C20074FE5DF5A1EE5F600543A1048007AEA174FB5EF5A1900403E0C313900403F09082
:2000E20000C8C007120069D00743A10180C9D2A022E582900404F09004057480F0C2A2C2C9
:20010200A0900404E0FF900405E0FE6030ADA174FE5DF5A1EE5F600543A1048007AEA17428
:20012200FB5EF5A1900405E0C313900405F0900002C007120069D00743A10180C9D2A02289
:20014200C2A59003E8120069D2A57582E21200F37582A31200F37582AF1200F37582A012F8
:2001620000F37582C81200F37582221200F37582811200F375822F1200F375822F1200F3D5
:200182007582401200F37582B01200F37582101200F37582001200F37582AF1200F37582CB
:2001A200A41200F37582A60200F3AF83E58290040AF0EFA3F0900406E0FEA3E0FF900415B6
:2001C2007408F0E4A3F08E828F83C007C006120491AC82AD8374B04CFA8D038A82C005C0FB
:2001E200041200F3D004D005D006D00790040AE0F508A3E0F50974F05508F8E4F9C4C8C4BC
:20020200540F68C8540FC868C830E30244F0F9430010741048FA89038A82C007C006C005A9
:20022200C004C001C0001200F3740F5508F5821200F3D000D001D004D005D006D00790048B
:200242000C7408F0E4A3F08E828F83C005C004C001C00012037BAE82AF83D000D001D0041A
:20026200D005900408E0FAA3E0FB4A604F8C02ED5401A2E0CA13CA13CAFBEA2400FAEB34C2
:2002820000FBE82AFAE93BFBC000C0018EF005F0750801750900800BE5082508F508E509B6
:2002A20033F509D5F0F28A828B83E0F9E50842018A828B83E9F0D001D000803F8C02ED540F
:2002C20001A2E0CA13CA13CAFBEA2400FAEB3400FBE82AFAE93BFB8EF005F07E017F0080DC
:2002E20006EE2EFEEF33FFD5F0F7EEF4FE8A828B83E0FF52068A828B83EEF0ED5401A2E012
:20030200CC13CC13CCFDEC2400FCED3400FDE82CF582E93DF583E0F5820200A41201427E31
:20032200007F008E048F057A007B00900406EAF0EBA3F09004087401F0E4A3F08C828D8399
:20034200C005C004C003C0021201ACD002D003D004D0050ABA00010BC3EA9440EB648094CC
:190362008040C874012CFEE43DFFC3EE9480EF6480948040AE90000022EF
:06003500E478FFF6D8FD9F
:200013007900E94400601B7A0090059D781F75A004E493F2A308B8000205A0D9F4DAF275CF
:02003300A0FF2C
:20037B00AF83E58290040EF0EFA3F090040EE0FEA3E0FF33E433FD6009C3E49EFBE49FFC44
:20039B0080048E038F0490040CE0FEA3E0FF30E709C3E49EF9E49FFA80048E018F02900487
:2003BB0010E9F0EAA3F08B828C83C0051203E4AE82AF83D005ED600CC3E49EFCE49FFD8C05
:0903DB00828D83228E828F832221
:2003E400AF83E582900412F0EFA3F0900414E4F0900412E0FEA3E0FF7D00900410E0FBA327
:20040400E0FC235401FA7037ECCB25E0CB33FC900410EBF0ECA3F0900410E0FBA3E0FCC36E
:20042400EE9BEF9C5011ECC313CB13CBFC900410EBF0ECA3F080080D900414EDF080BB90F9
:200444000414E0FF900412E0FDA3E0FE900410E0FBA3E0FCC3ED9BEE9C400B900412EDC329
:200464009BF0EE9CA3F0900410E0FDA3E0C313CD13CDFE900410EDF0EEA3F08F061FEE7037
:0D048400C3900412E0FEA3E08E82F58322F7
:20003B007800E84400600A790075A000E4F309D8FC781FE84404600C7905900000E4F0A39D
:04005B00D8FCD9FAFA
:20049100AF83E582900417F0EFA3F0900417E0FEA3E0FF33E433FD6009C3E49EFBE49FFC1B
:2004B10080048E038F04900415E0FEA3E0FF33E433FA6009C3E49EF8E49FF980048E008F73
:2004D10001900419E8F0E9A3F08B828C83C005C002120502AE82AF83D002D005EA6D600C81
:1104F100C3E49EFCE49FFD8C828D83228E828F8322B5
:20050200AF83E58290041BF0EFA3F090041DE4F0E4A3F0900419E0FEA3E0FF7D1090041BDA
:20052200E0FBA3E0FC339200ECCB25E0CB33FC90041BEBF0ECA3F090041DE0FBA3E0CB25DC
:20054200E0CB33FC90041DEBF0ECA3F030001290041DE0FBA3E0FC90041D74014BF0ECA377
:20056200F090041DE0FBA3E0FCC3EB9EEC9F401D90041DEBC39EF0EC9FA3F090041BE0FBB5
:1B058200A3E0FC90041B74014BF0ECA3F0DD8E90041BE0FEA3E08E82F58322DC
:0D000600758120120062E582600302000394
:00000001FF
